:100000000C9448000C947C000C947C000C947C00B4
:100010000C947C000C947C000C947C000C947C0070
:100020000C947C000C94C50A0C946E090C94940AF0
:100030000C94010A0C94320A0C943D090C94D009DA
:100040000C9445060C947C000C946D020C94FC02FC
:100050000C947C000C947C000C947C000C947C0030
:100060000C94630A0C94890B0C94F60A0C94270BDD
:100070000C94580B0C949F090C943E020C94B502FE
:100080000C947C000C947C000C947C0024044B04A5
:1000900011241FBECFEFD0E1DEBFCDBF88E483BF08
:1000A00084E00E94B30712BE87B7816087BF78944F
:1000B00011E0A0E0B1E0E2E9F9E100E00BBF02C02D
:1000C00007900D92A63AB107D9F712E0A6EAB1E07F
:1000D00001C01D92A638B107E1F710E0C0E9D0E0F9
:1000E00004C02297FE010E94C30CCC38D107C9F787
:1000F0000E94BA0B0C94C70C0C9400000F931F9332
:10010000CF93DF93EB018A01CC0FDD1F57FD0CC0AD
:10011000FE01EC58FE4F808161E00E942907C4581F
:10012000DE4F8881B8010EC0FE01EC58FE4F808181
:1001300060E00E942907C458DE4F66277727601BBE
:10014000710B88810E948608DF91CF911F910F91DA
:1001500008951F93CF93DF93C0E0D0E0FE01EC58E9
:10016000FE4F1081812F61E00E94E006812F61E047
:100170000E942907FE01E458FE4F808160E070E094
:100180000E9486082296C830D10541F7DF91CF91B1
:100190001F910895FC0110828AE090E0938382838E
:1001A0000895CF93DF93EC018A8160E00E942907D4
:1001B0008D8160E00E9459078D8160E00E947B077D
:1001C0008B8161E00E9429078C8161E00E942907F0
:1001D0000000000010C08C8160E00E942907000030
:1001E0000000000000008C8161E00E9429070000EF
:1001F0000000000000008D810E94700787FDEBCF9A
:100200008C8160E00E942907DF91CF910895FF92D1
:100210000F931F938C01F62E0E94D100F80182816A
:1002200061E00E942907F801838160E00E942907AC
:10023000F801848161E00E942907F801858161E06D
:100240000E945907F80185816F2D0E947B070000ED
:10025000000000000000F801848160E00E9429078E
:10026000F801858160E00E945907F80185816FEFF0
:100270000E947B071F910F91FF900895EF92FF92CC
:100280000F931F93CF93DF937C01042F61157105AA
:1002900051F0EB0110E005C0C70169910E94070110
:1002A0001F5F1017C8F3DF91CF911F910F91FF903F
:1002B000EF900895DF93CF930F92CDB7DEB76983A8
:1002C000BE016F5F7F4F41E00E943E010F90CF91D2
:1002D000DF910895FF920F931F938C01F62E0E94D9
:1002E000D100F801828160E00E942907F801838132
:1002F00060E00E942907F801848161E00E942907DB
:10030000F801858161E00E945907F80185816F2D10
:100310000E947B070000000000000000F8018481BB
:1003200060E00E942907F801858160E00E9459077A
:10033000F80185816FEF0E947B071F910F91FF905D
:100340000895423031F0433031F0413029F4605C9F
:1003500003C06C5E01C06C5A60680E946A01089517
:1003600062E00E946A01089561E00E946A010895B6
:100370000F931F938C01FC01828160E00E9429078A
:10038000F801838160E00E942907F801848160E020
:100390000E942907F801828161E00E94E006F801CD
:1003A000838161E00E94E006F801848161E00E949F
:1003B000E006F801858160E00E945907F801858117
:1003C0006FEF0E947B071F910F9108950F931F936A
:1003D0008C010E94B801C80168E30E946A01C8014B
:1003E00061E00E946A01C80166E00E946A01C801DA
:1003F0006CE00E946A01C80162E00E946A01C801C3
:1004000060E80E946A011F910F9108950F93FC010B
:1004100088E891E09183808362834383248305830A
:10042000CF010E94E6010F910895FC0124813581DE
:10043000C9010895DC01FC0182819381809714F049
:1004400080E00895FD0182819381019693838283E8
:1004500084819581E80FF91F60870196FD019583DE
:1004600084832D913C9111978217930714F481E0B6
:100470000895FD011582148281E008951F920F9264
:100480000FB60F920BB60F9211242F933F934F93F9
:100490005F936F937F938F939F93AF93BF93EF93EC
:1004A000FF93E0913C02F0913D02608184EF91E086
:1004B0000E941A02FF91EF91BF91AF919F918F918E
:1004C0007F916F915F914F913F912F910F900BBE54
:1004D0000F900FBE0F901F9018951F920F920FB69E
:1004E0000F920BB60F9211242F933F934F935F936C
:1004F0006F937F938F939F93AF93BF93EF93FF93EC
:10050000E091F001F091F101608188EA91E00E94B0
:100510001A02FF91EF91BF91AF919F918F917F91BF
:100520006F915F914F913F912F910F900BBE0F9064
:100530000FBE0F901F901895DC01FC018281938102
:1005400001979383828386819781E80FF91F408505
:100550000196FD01978386832D913C918217930725
:1005600014F017821682842F08951F920F920FB6EF
:100570000F920BB60F9211240F931F932F933F935B
:100580004F935F936F937F938F939F93AF93BF939B
:10059000EF93FF9380911E0290911F021816190687
:1005A00054F400913C0210913D028CE192E00E94D3
:1005B0009C02F801808380911E0290911F02892B7A
:1005C00031F4E0913A02F0913B0288E98083FF9197
:1005D000EF91BF91AF919F918F917F916F915F91BB
:1005E0004F913F912F911F910F910F900BBE0F9044
:1005F0000FBE0F901F9018951F920F920FB60F927B
:100600000BB60F9211240F931F932F933F934F9389
:100610005F936F937F938F939F93AF93BF93EF936A
:10062000FF938091D2019091D3011816190654F4CA
:100630000091F0011091F10180ED91E00E949C0287
:10064000F80180838091D2019091D301892B31F4FC
:10065000E091EE01F091EF0188E98083FF91EF9145
:10066000BF91AF919F918F917F916F915F914F91CA
:100670003F912F911F910F910F900BBE0F900FBEC6
:100680000F901F901895DC01FC01828193810197E6
:100690009383828386819781E80FF91F40850196B5
:1006A000FD01978386832D913C918217930714F067
:1006B00017821682842F0895FC0184819581892BED
:1006C00019F42FEF3FEF06C0CF0102960E944303BB
:1006D000282F30E0C9010895CF93DF93EC01EE811C
:1006E000FF81E80FF91F8085DF91CF910895FC010C
:1006F00084819581892B19F42FEF3FEF06C0CF013C
:1007000002960E946C03282F30E0C9010895FC0175
:100710001382128282819381978386839583848357
:10072000089502960E9487030895FC0180E290E0FC
:1007300091838083CF010E9487030895DC01FC012F
:1007400082819381409714F080E00895FD018281B9
:10075000938101969383828384819581E80FF91FA9
:1007600060870196FD01958384832D913C911197BB
:100770008217930714F481E00895FD011582148215
:1007800081E00895CF93DF93EC018CA59DA5409760
:10079000E4F7F894CE018A960E949E03C85BDF4F6F
:1007A000E881F9818081806280837894DF91CF91A4
:1007B0000895FC011382128282819381978386833C
:1007C000958384830895FC0180E190E09183808388
:1007D000CF010E94D90308956F927F928F929F92CA
:1007E000AF92BF92CF92DF92EF92FF920F931F933F
:1007F0006C015B014A013901FC018EE891E08193B3
:100800009193CF010E949503C6018A960E94E3034B
:1008100082E490E0C80ED91EF601A192B1928192B5
:1008200091926192719201931193F182E0821F91F2
:100830000F91FF90EF90DF90CF90BF90AF909F907F
:100840008F907F906F900895EF92FF920F931F9378
:1008500086EA91E060E970E049E250E02BE230E0A6
:100860000AE210E0FCE2EF2EF12C0E94EC0382EF92
:1008700091E068E970E049E950E02BE930E00AE9ED
:1008800010E0ECE9EE2EF12C0E94EC031F910F9189
:10089000FF90EF9008950F938EE392E06AE14BE1B1
:1008A0002CE102E00E94060284E492E00E94A9008A
:1008B00086E492E00E94CA008AE492E00E94CA00A4
:1008C0008EE492E00E94CA000F910895D2C164E6BE
:1008D00070E080E090E00E94BA0684E492E060E07C
:1008E00070E040E050E00E947E0084E492E061E02D
:1008F00070E040E050E00E947E0060C08EE392E035
:100900000E94B4018EE392E00E94B0018EE392E077
:1009100060E040E00E94A1018EE392E060E071E0BF
:100920000E94D30B60915402709155028EE392E0C5
:100930000E94970C8EE392E060E041E00E94A101EA
:100940008EE392E068E071E00E94D30B64E170E016
:1009500080E090E00E94BA06809146010E94100754
:10096000882361F525C08EE392E00E94B4018EE3F6
:1009700092E060E040E00E94A1018EE392E060E03E
:1009800071E00E94D30B86E00E948F07BC018EE3CA
:1009900092E00E94970C86E00E948F079093550288
:1009A0008093540264E170E080E090E00E94BA0617
:1009B000809152020E9410078823A9F6809152026A
:1009C0000E941007882309F099CF6CE271E080E063
:1009D00090E00E94BA0660C08EE392E00E94B401EB
:1009E0008EE392E00E94B0018EE392E060E040E08E
:1009F0000E94A1018EE392E067E171E00E94D30BB7
:100A000060915602709157028EE392E00E94970C1B
:100A10008EE392E060E041E00E94A1018EE392E06B
:100A20006CE171E00E94D30B6AE070E080E090E03E
:100A30000E94BA06809146010E941007882361F542
:100A400025C08EE392E00E94B4018EE392E060E064
:100A500040E00E94A1018EE392E067E171E00E9414
:100A6000D30B86E00E948F07BC018EE392E00E94C8
:100A7000970C86E00E948F0790935702809356024E
:100A80006AE070E080E090E00E94BA068091520235
:100A90000E9410078823A9F6809152020E94100735
:100AA000882309F099CF6CE271E080E090E00E9429
:100AB000BA0660C08EE392E00E94B4018EE392E039
:100AC0000E94B0018EE392E060E040E00E94A1014C
:100AD0008EE392E06DE271E00E94D30B60915802C8
:100AE000709159028EE392E00E94970C8EE392E09F
:100AF00060E041E00E94A1018EE392E06CE171E0D0
:100B00000E94D30B64E170E080E090E00E94BA069E
:100B1000809146010E941007882361F525C08EE36D
:100B200092E00E94B4018EE392E060E040E00E9417
:100B3000A1018EE392E06DE271E00E94D30B86E0AA
:100B40000E948F07BC018EE392E00E94970C86E022
:100B50000E948F07909359028093580264E170E0DD
:100B600080E090E00E94BA06809152020E94100735
:100B70008823A9F6809152020E941007882309F069
:100B800099CF6CE271E080E090E00E94BA0664C008
:100B90008EE392E00E94B4018EE392E00E94B001E5
:100BA0008EE392E060E040E00E94A1018EE392E0DB
:100BB00063E371E00E94D30B60915A0270915B0273
:100BC0008EE392E00E94970C8EE392E060E041E0B9
:100BD0000E94A1018EE392E06CE171E00E94D30BD0
:100BE00064E170E080E090E00E94BA0680914601E6
:100BF0000E941007882381F529C08EE392E00E94AD
:100C0000B4018EE392E00E94B0018EE392E060E0D6
:100C100040E00E94A1018EE392E06CE371E00E944B
:100C2000D30B86E00E948F07BC018EE392E00E9406
:100C3000970C86E00E948F0790935B0280935A0284
:100C400064E170E080E090E00E94BA068091520278
:100C50000E941007882389F6809152020E94100793
:100C6000882309F095CF68EC70E080E090E00E9466
:100C7000BA0682E30E941007882309F028CE08955F
:100C800080E060E00E94590708951F920F920FB60E
:100C90000F9211242F933F938F939F93AF93BF9302
:100CA0008091600290916102A0916202B091630212
:100CB000309164020196A11DB11D232F2D5F2D37A8
:100CC00020F02D570196A11DB11D20936402809341
:100CD000600290936102A0936202B09363028091DC
:100CE0005C0290915D02A0915E02B0915F0201965C
:100CF000A11DB11D80935C0290935D02A0935E02E2
:100D0000B0935F02BF91AF919F918F913F912F91CF
:100D10000F900FBE0F901F9018956FB7F894209109
:100D20005C0230915D0240915E0250915F0282B799
:100D300090E0A0E0B0E006B600FE09C08F3F91054C
:100D4000A105B10521F02F5F3F4F4F4F5F4F6FBFA0
:100D5000542F432F322F2227280F391F4A1F5B1F82
:100D600082E0220F331F441F551F8A95D1F7B90126
:100D7000CA010895EF92FF920F931F93CF93DF93D1
:100D80007B018C010E948D06EB010EC00E948D0636
:100D90006C1B7D0B685E7340C8F30894E108F10892
:100DA00001091109C851DC4FE114F10401051105D5
:100DB00069F7DF91CF911F910F91FF90EF90089508
:100DC000E82FE695E695E695A82FB0E0613099F416
:100DD0002FB7F894F0E0EE0FFF1FEA5AFE4F019094
:100DE000F081E02D9081A770B070A856BE4F8C9115
:100DF000982B908313C02FB7F894F0E0EE0FFF1FED
:100E0000EA5AFE4F0190F081E02D9081A770B070FA
:100E1000A856BE4F8C918095892380832FBF08955B
:100E2000A82FE82FE695E695E695F0E0EE0FFF1F78
:100E3000EC59FE4F0190F081E02DE081B0E0A77009
:100E4000B070A856BE4F8C91E82309F0E1E08E2FD8
:100E50000895E82FE695E695E695A82FB0E0613075
:100E600099F42FB7F894F0E0EE0FFF1FE85BFE4F08
:100E70000190F081E02D9081A770B070A856BE4F10
:100E80008C91982B908313C02FB7F894F0E0EE0F5D
:100E9000FF1FE85BFE4F0190F081E02D9081A7706D
:100EA000B070A856BE4F8C918095892380832FBF48
:100EB0000895E82FF0E0613051F4EE0FFF1FEA5A79
:100EC000FE4F0190F081E02D8FEF80830895EE0FAB
:100ED000FF1FEA5AFE4F0190F081E02D1082089525
:100EE000E82FF0E0EE0FFF1FEC59FE4F0190F0816C
:100EF000E02D80810895E82FF0E0EE0FFF1FE85B02
:100F0000FE4F0190F081E02D608308951092610002
:100F10001092620080E487B987EE86B908951F9326
:100F2000182F80917201813021F40E94860710925F
:100F3000720180917301181721F4349A349BFECF0B
:100F40000DC01093730187B11770807E812B87B914
:100F5000349A349BFECF349A349BFECF24B135B102
:100F6000C9011F91089593B7987F982B93BF089557
:100F70009EB5987F982B9EBD089583E00E94B80788
:100F80001DBC1CBC87B7846087BF0895EAE8F0E009
:100F90009081987F982B9083089583E00E94C607E4
:100FA0001092890010928800EDE7F0E08081846063
:100FB00080830895893031F48FB582608FBD8FB5FD
:100FC0008E7F0AC08A3019F48FB5826002C08FB557
:100FD0008D7F8FBD8FB581608FBD1BBC1ABC19BCC6
:100FE00018BC109279001092780008958FB580682F
:100FF0008FBD8FB58F7B8FBD08958FB580628FBDFC
:101000008FB58F7E8FBD08958FB588608FBD8FB5EA
:101010008B7F8FBD08959BBD8ABD089599BD88BD06
:10102000089590937900809378000895893049F469
:1010300080918B00826080938B0080918B008E7FEB
:101040000EC08A3021F480918B00826003C08091B1
:101050008B008D7F80938B0080918B0081608093CB
:101060008B001092870010928600109285001092DB
:10107000840010928300109282000895EBE8F0E063
:1010800080818068808380818F7B80830895EBE8F6
:10109000F0E080818062808380818F7E80830895EC
:1010A000EBE8F0E080818860808380818B7F8083A3
:1010B0000895853019F40E94F6070895843019F4D4
:1010C0000E94FD070895833019F40E9404080895D2
:1010D000823019F40E943E080895813019F40E946C
:1010E00047080895882311F40E94500808959093AA
:1010F00087008093860008959093850080938400F4
:10110000089590938300809382000895EF92FF9258
:101110001F93CF93DF93182F7B018D31B0F08F3168
:1011200011F413E014C08E3111F414E010C08D31AD
:1011300009F49BC0853211F410E03DC0843211F4F3
:1011400011E039C0833219F48EC08330A0F1809150
:10115000650286FD0BC00E94BD0778948AE00E945C
:10116000DA07809165028064809365028091650250
:10117000C12FD0E090E0012E02C0959587950A948A
:10118000E2F780FD4CC087B3FE01E056FE4F908130
:10119000892B87BB812F0E9459082091650281E02D
:1011A00090E0012E02C0880F991F0A94E2F7282BC5
:1011B0002093650234C08091650287FD0BC00E94B8
:1011C000CD0778948AE00E941608809165028068B5
:1011D0008093650280916502C12FD0E090E0012EDE
:1011E00002C0959587950A94E2F780FD24C082B1EC
:1011F000FE01E056FE4F9081892B82B9812F0E941B
:1012000059082091650281E090E0012E02C0880F0C
:10121000991F0A94E2F7282B209365020CC0153021
:1012200021F4C7010E940B0822C0143021F4C70129
:101230000E940E081CC0133021F4C7010E9411083F
:1012400016C0123021F4C7010E94770810C0113077
:1012500021F4C7010E947C080AC0112341F4C70190
:101260000E94810804C012E0A6CF15E070CFDF9184
:10127000CF911F91FF90EF9008951F920F920FB69C
:101280000F920BB60F9211242F933F934F935F93BE
:101290006F937F938F939F93AF93BF93EF93FF933E
:1012A00080916C0290916D02892B29F0E0916C0283
:1012B000F0916D020995FF91EF91BF91AF919F91D0
:1012C0008F917F916F915F914F913F912F910F90EF
:1012D0000BBE0F900FBE0F901F9018951F920F928C
:1012E0000FB60F920BB60F9211242F933F934F938B
:1012F0005F936F937F938F939F93AF93BF93EF937E
:10130000FF938091760290917702892B29F0E091EA
:101310007602F09177020995FF91EF91BF91AF911D
:101320009F918F917F916F915F914F913F912F91FD
:101330000F900BBE0F900FBE0F901F9018951F922D
:101340000F920FB60F920BB60F9211242F933F936B
:101350004F935F936F937F938F939F93AF93BF93BD
:10136000EF93FF9380917C0290917D02892B29F06D
:10137000E0917C02F0917D020995FF91EF91BF9180
:10138000AF919F918F917F916F915F914F913F911D
:101390002F910F900BBE0F900FBE0F901F901895BE
:1013A0001F920F920FB60F920BB60F9211242F932C
:1013B0003F934F935F936F937F938F939F93AF93DD
:1013C000BF93EF93FF938091680290916902892BFC
:1013D00029F0E0916802F09169020995FF91EF917F
:1013E000BF91AF919F918F917F916F915F914F913D
:1013F0003F912F910F900BBE0F900FBE0F901F903B
:1014000018951F920F920FB60F920BB60F921124E0
:101410002F933F934F935F936F937F938F939F93FC
:10142000AF93BF93EF93FF9380916E0290916F0201
:10143000892B29F0E0916E02F0916F020995FF91DE
:10144000EF91BF91AF919F918F917F916F915F913C
:101450004F913F912F910F900BBE0F900FBE0F90A9
:101460001F9018951F920F920FB60F920BB60F9206
:1014700011242F933F934F935F936F937F938F9399
:101480009F93AF93BF93EF93FF93809170029091DE
:101490007102892B29F0E0917002F0917102099597
:1014A000FF91EF91BF91AF919F918F917F916F913C
:1014B0005F914F913F912F910F900BBE0F900FBEF8
:1014C0000F901F9018951F920F920FB60F920BB6A8
:1014D0000F9211242F933F934F935F936F937F93BA
:1014E0008F939F93AF93BF93EF93FF93809172027B
:1014F00090917302892B29F0E0917202F0917302AE
:101500000995FF91EF91BF91AF919F918F917F913D
:101510006F915F914F913F912F910F900BBE0F9064
:101520000FBE0F901F9018951F920F920FB60F923B
:101530000BB60F9211242F933F934F935F936F93AA
:101540007F938F939F93AF93BF93EF93FF9380917C
:10155000740290917502892B29F0E0917402F09148
:1015600075020995FF91EF91BF91AF919F918F9176
:101570007F916F915F914F913F912F910F900BBE93
:101580000F900FBE0F901F9018951F920F920FB6DD
:101590000F920BB60F9211242F933F934F935F93AB
:1015A0006F937F938F939F93AF93BF93EF93FF932B
:1015B0008091780290917902892B29F0E09178024C
:1015C000F09179020995FF91EF91BF91AF919F91B1
:1015D0008F917F916F915F914F913F912F910F90DC
:1015E0000BBE0F900FBE0F901F9018951F920F9279
:1015F0000FB60F920BB60F9211242F933F934F9378
:101600005F936F937F938F939F93AF93BF93EF936A
:10161000FF9380917E0290917F02892B29F0E091C7
:101620007E02F0917F020995FF91EF91BF91AF91FA
:101630009F918F917F916F915F914F913F912F91EA
:101640000F900BBE0F900FBE0F901F9018951F921A
:101650000F920FB60F920BB60F9211242F933F9358
:101660004F935F936F937F938F939F93AF93BF93AA
:10167000EF93FF938091800290918102892B29F052
:10168000E0918002F09181020995FF91EF91BF9165
:10169000AF919F918F917F916F915F914F913F910A
:1016A0002F910F900BBE0F900FBE0F901F901895AB
:1016B0001F920F920FB60F920BB60F9211242F9319
:1016C0003F934F935F936F937F938F939F93AF93CA
:1016D000BF93EF93FF938091820290918302892BB5
:1016E00029F0E0918202F09183020995FF91EF9138
:1016F000BF91AF919F918F917F916F915F914F912A
:101700003F912F910F900BBE0F900FBE0F901F9027
:1017100018951F920F920FB60F920BB60F921124CD
:101720002F933F934F935F936F937F938F939F93E9
:10173000AF93BF93EF93FF938091840290918502C2
:10174000892B29F0E0918402F09185020995FF919F
:10175000EF91BF91AF919F918F917F916F915F9129
:101760004F913F912F910F900BBE0F900FBE0F9096
:101770001F90189583E061E00E94590784E061E0C2
:101780000E94590778940E9440060E946604FDCF8B
:10179000DC01ED91FC910190F081E02D0995089517
:1017A0000E94C80B08950F931F93CF93DF938C0172
:1017B000EB0104C02196C8010E94D00B688166230A
:1017C000C9F7DF91CF911F910F9108952F923F920A
:1017D0004F925F926F927F928F929F92AF92BF9241
:1017E000CF92DF92EF92FF920F931F93DF93CF93ED
:1017F000CDB7DEB7A0970FB6F894DEBF0FBECDBF52
:101800001C016A017B01411551056105710521F437
:1018100060E30E94D00B4FC0882499245401422ECB
:1018200055246624772401E010E00C0F1D1F080DDD
:10183000191DC701B601A30192010E949F0CF80176
:1018400060830894811C911CA11CB11CC701B601C6
:10185000A30192010E949F0CC901DA016C017D0174
:10186000C114D104E104F104F1F681E0E82EF12C79
:10187000EC0EFD1EE80CF91C3E010894611C711C65
:10188000D501C4010197A109B1096C01C818D90893
:101890000FC0F601EE0DFF1D60816A3010F4605D2F
:1018A00001C0695CC1010E94D00B0894E108F108F5
:1018B0006E147F0471F7A0960FB6F894DEBF0FBECA
:1018C000CDBFCF91DF911F910F91FF90EF90DF90EF
:1018D000CF90BF90AF909F908F907F906F905F90D0
:1018E0004F903F902F900895EF92FF920F931F9388
:1018F000CF93DF93EC017A018B0177FF0BC06DE290
:101900000E94D00B10950095F094E094E11CF11C1E
:10191000011D111DCE01B801A7012AE00E94E60BAE
:10192000DF91CF911F910F91FF90EF900895AB0140
:10193000662757FD6095762F0E94740C0895A1E2EA
:101940001A2EAA1BBB1BFD010DC0AA1FBB1FEE1F39
:10195000FF1FA217B307E407F50720F0A21BB30B84
:10196000E40BF50B661F771F881F991F1A9469F700
:1019700060957095809590959B01AC01BD01CF015C
:101980000895EE0FFF1F0590F491E02D0994F8944F
:02199000FFCF87
:101992005370656564203D007365743D6368616ED4
:1019A20067652076616C004B70203D007365743D65
:1019B2006368616E67652076616C7565004B6420B3
:1019C2003D2000546872657368203D00546872655A
:1019D2007368203D20000100320035003B003800D2
:1019E200230062006500310034003A003700220013
:1019F200610064003000330039003600210020000D
:101A0200630001FF180019002600270005000400EA
:101A120001000000000000005A0100000000C203A3
:101A2200150277035C039103010204081020408031
:061A320020100880402096
:00000001FF
