:100000000C9448000C9457070C9488070C94B9077B
:100010000C94EA070C941B080C944C080C947D0873
:100020000C94AE080C94220C0C94CB0A0C94F10B9B
:100030000C945E0B0C948F0B0C949A0A0C942D0B61
:100040000C94A2050C94DF080C9412030C94A103E9
:100050000C947C000C947C000C947C000C947C0030
:100060000C94C00B0C94E60C0C94530C0C94840C64
:100070000C94B50C0C94FC0A0C94E3020C945A03F7
:100080000C947C000C947C000C947C00C904F70454
:1000900011241FBECFEFD0E1DEBFCDBF88E483BF08
:1000A00084E00E94100912BE87B7816087BF7894F0
:1000B00011E0A0E0B1E0E0ECFCE100E00BBF02C029
:1000C00007900D92A03DB107D9F712E0A0EDB1E085
:1000D00001C01D92AC3BB107E1F710E0C0E9D0E0F0
:1000E00004C02297FE010E945A0ECC38D107C9F7EE
:1000F0000E94170D0C945E0E0C940000FB01EE0F95
:10010000FF1FEB55FE4F808160E070E00E94E30925
:1001100008951F93CF93DF93C0E0D0E0FE01E35634
:10012000FE4F1081812F61E00E943D06812F61E02A
:100130000E948606FE01EB55FE4F808160E070E074
:100140000E94E3092296C830D10541F7DF91CF9193
:100150001F910895FC0110828AE090E093838283CE
:100160000895CF93DF93EC018A8160E00E948606B8
:100170008D8160E00E94B6068D8160E00E94D80605
:100180008B8161E00E9486068C8161E00E94860678
:100190000000000010C08C8160E00E948606000014
:1001A0000000000000008C8161E00E9486060000D3
:1001B0000000000000008D810E94CD0687FDEBCF7E
:1001C0008C8160E00E948606DF91CF910895FF92B6
:1001D0000F931F938C01F62E0E94B100F8018281CB
:1001E00061E00E948606F801838160E00E94860635
:1001F000F801848161E00E948606F801858161E052
:100200000E94B606F80185816F2D0E94D806000075
:10021000000000000000F801848160E00E94860672
:10022000F801858160E00E94B606F80185816FEFD4
:100230000E94D8061F910F91FF900895EF92FF92B0
:100240000F931F93CF93DF937C01042F61157105EA
:1002500051F0EB0110E005C0C70169910E94E70071
:100260001F5F1017C8F3DF91CF911F910F91FF907F
:10027000EF900895DF93CF930F92CDB7DEB76983E8
:10028000BE016F5F7F4F41E00E941E010F90CF9132
:10029000DF910895FF920F931F938C01F62E0E9419
:1002A000B100F801828160E00E948606F801838136
:1002B00060E00E948606F801848161E00E94860663
:1002C000F801858161E00E94B606F80185816F2DF5
:1002D0000E94D8060000000000000000F8018481A0
:1002E00060E00E948606F801858160E00E94B60603
:1002F000F80185816FEF0E94D8061F910F91FF9042
:1003000008950F931F938C01FC01828160E00E948D
:100310008606F801838160E00E948606F8018481E8
:1003200060E00E948606F801828161E00E943D063D
:10033000F801838161E00E943D06F801848161E05B
:100340000E943D06F801858160E00E94B606F80132
:1003500085816FEF0E94D8061F910F9108950F932A
:100360001F938C010E948101C80168E30E944A0129
:10037000C80161E00E944A01C80166E00E944A018A
:10038000C8016CE00E944A01C80162E00E944A0173
:10039000C80160E80E944A011F910F9108950F93D0
:1003A000FC0181EB91E0918380836283438324830A
:1003B0000583CF010E94AF010F9108955F926F9264
:1003C0007F928F929F92AF92BF92CF92DF92EF92E5
:1003D000FF920F931F93CF93DF93EC013A014B01F0
:1003E000413482E458078FE0680780E078070CF01A
:1003F0007FC060E874E88EE190E0A40193010E9460
:100400003D0E2150304040405040CA01B90122E029
:1004100030E040E050E00E943D0E59016A01A60123
:100420009501209530954095509594E0220F331F0B
:10043000441F551F9A95D1F760E074E284EF90E075
:100440000E943D0ECA01B9012FEF30E040E050E0BC
:100450000E94FC0DA40193010E943D0EC901815030
:100460009F4F181619061CF4522E5A9403C0552497
:100470005394521A60E079E08DE390E0A401930177
:100480000E943D0E2150304040405040CA01B90109
:1004900022E030E040E050E00E943D0E2095309593
:1004A0004095509583E0220F331F441F551F8A95B6
:1004B000D1F760E074E284EF90E00E943D0ECA0143
:1004C000B9012FEF30E040E050E00E94FC0DA401A4
:1004D00093010E943D0EC90181509F4F18161906C5
:1004E0001CF4822F815002C081E0821B8515E8F444
:1004F000CA5BDF4FE881F981C654D04082E0808337
:1005000060E079E08DE390E0A40193010E943D0E4C
:100510002150304040405040CA01B90122E030E053
:1005200040E050E00E943D0E08C0CA5BDF4FE8810A
:10053000F981C654D04010829501CE5BDF4FE9911E
:10054000F9913083E881F98120832496E881F9814B
:1005500088E98083DF91CF911F910F91FF90EF90F9
:10056000DF90CF90BF90AF909F908F907F906F90D3
:100570005F900895FC0124813581C9010895DC0153
:10058000FC0182819381809714F080E00895FD0141
:100590008281938101969383828384819581E80F80
:1005A000F91F60870196FD01958384832D913C910D
:1005B00011978217930714F481E00895FD011582C5
:1005C000148281E008951F920F920FB60F920BB61E
:1005D0000F9211242F933F934F935F936F937F93C9
:1005E0008F939F93AF93BF93EF93FF93E091660236
:1005F000F091670260818EE192E00E94BF02FF915C
:10060000EF91BF91AF919F918F917F916F915F918A
:100610004F913F912F910F900BBE0F900FBE0F90F7
:100620001F9018951F920F920FB60F920BB60F9254
:1006300011242F933F934F935F936F937F938F93E7
:100640009F93AF93BF93EF93FF93E0911A02F091C2
:100650001B02608182ED91E00E94BF02FF91EF9149
:10066000BF91AF919F918F917F916F915F914F91CA
:100670003F912F910F900BBE0F900FBE0F901F90C8
:100680001895DC01FC018281938101979383828319
:1006900086819781E80FF91F40850196FD019783B8
:1006A00086832D913C918217930714F0178216824E
:1006B000842F08951F920F920FB60F920BB60F92D0
:1006C00011240F931F932F933F934F935F936F9337
:1006D0007F938F939F93AF93BF93EF93FF938091FB
:1006E0004802909149021816190654F400916602C6
:1006F0001091670286E492E00E944103F801808332
:100700008091480290914902892B31F4E091640272
:10071000F091650288E98083FF91EF91BF91AF91DD
:100720009F918F917F916F915F914F913F912F9109
:100730001F910F910F900BBE0F900FBE0F901F9047
:1007400018951F920F920FB60F920BB60F921124AD
:100750000F931F932F933F934F935F936F937F93C9
:100760008F939F93AF93BF93EF93FF938091FC017F
:100770009091FD011816190654F400911A02109177
:100780001B028AEF91E00E944103F801808380916F
:10079000FC019091FD01892B31F4E0911802F09158
:1007A000190288E98083FF91EF91BF91AF919F91EA
:1007B0008F917F916F915F914F913F912F911F91F9
:1007C0000F910F900BBE0F900FBE0F901F901895BA
:1007D000DC01FC018281938101979383828386816E
:1007E0009781E80FF91F40850196FD019783868365
:1007F0002D913C918217930714F017821682842F53
:100800000895FC0184819581892B19F42FEF3FEF26
:1008100006C0CF0102960E94E803282F30E0C901EC
:100820000895CF93DF93EC01EE81FF81E80FF91F6C
:100830008085DF91CF910895FC0184819581892B7A
:1008400019F42FEF3FEF06C0CF0102960E9411046A
:10085000282F30E0C9010895FC01138212828281A1
:1008600093819783868395838483089502960E945B
:100870002C040895FC0180E290E091838083CF01F5
:100880000E942C040895DC01FC0182819381409731
:1008900014F080E00895FD01828193810196938395
:1008A000828384819581E80FF91F60870196FD019D
:1008B000958384832D913C9111978217930714F4AB
:1008C00081E00895FD011582148281E00895CF939F
:1008D000DF93EC018CA59DA54097E4F7F894CE0139
:1008E0008A960E944304C85BDF4FE881F9818081CA
:1008F000806280837894DF91CF910895FC01138208
:10090000128282819381978386839583848308955D
:10091000FC0180E190E091838083CF010E947E04FE
:1009200008956F927F928F929F92AF92BF92CF92D3
:10093000DF92EF92FF920F931F936C015B014A01CC
:100940003901FC0187EB91E081939193CF010E94E3
:100950003A04C6018A960E94880482E490E0C80E98
:10096000D91EF601A192B1928192919261927192F7
:1009700001931193F182E0821F910F91FF90EF900C
:10098000DF90CF90BF90AF909F908F907F906F90AF
:100990000895EF92FF920F931F9380ED91E060E92D
:1009A00070E049E250E02BE230E00AE210E0FCE2C5
:1009B000EF2EF12C0E9491048CE192E068E970E046
:1009C00049E950E02BE930E00AE910E0ECE9EE2ECD
:1009D000F12C0E9491041F910F91FF90EF900895C8
:1009E00081E090E090937D0280937C0208950F93C4
:1009F00088E692E06AE14BE12CE102E00E94CF013F
:100A00008EE692E00E94890080E792E00E94AA00B0
:100A100084E792E00E94AA0088E792E00E94AA0080
:100A20000F910895CF93DF93EC018EE692E060E0A2
:100A300070E00E947E008EE692E061E070E00E942D
:100A40007E0080ED91E060E071E00E94300D80ED6D
:100A500091E0BE010E94F40D209709F1219721F544
:100A60000CC080ED91E06EE071E00E94300D6AE014
:100A700070E080E090E00E94170683E00E946D061F
:100A8000882379F711C080ED91E060E271E00E9467
:100A9000300D6AE070E080E090E00E94170682E08E
:100AA0000E946D06882379F7DF91CF9108952091F8
:100AB0007C0230917D0280917E0290917F028217AC
:100AC0009307D1F060917C0270917D0280ED91E0FE
:100AD0000E94F40D80917C0290917D020E9412058B
:100AE00080917C0290917D0290937F0280937E02A0
:100AF00010927D0210927C0280ED91E064E371E03F
:100B00000E94300D80ED91E069E471E00E94300DAB
:100B100068EE73E080E090E00E941706089580E0A0
:100B200060E00E943D0680E060EF74E042E00E94D9
:100B3000490780ED91E040E855E260E070E00E94F6
:100B4000DE0108951F920F920FB60F9211242F937A
:100B50003F938F939F93AF93BF9380918402909123
:100B60008502A0918602B091870230918802019699
:100B7000A11DB11D232F2D5F2D3720F02D5701967C
:100B8000A11DB11D20938802809384029093850259
:100B9000A0938602B0938702809180029091810297
:100BA000A0918202B09183020196A11DB11D809394
:100BB000800290938102A0938202B0938302BF913E
:100BC000AF919F918F913F912F910F900FBE0F90FA
:100BD0001F9018956FB7F894209180023091810290
:100BE000409182025091830282B790E0A0E0B0E091
:100BF00006B600FE09C08F3F9105A105B10521F0A1
:100C00002F5F3F4F4F4F5F4F6FBF542F432F322FF8
:100C10002227280F391F4A1F5B1F82E0220F331F34
:100C2000441F551F8A95D1F7B901CA010895EF9263
:100C3000FF920F931F93CF93DF937B018C010E9450
:100C4000EA05EB010EC00E94EA056C1B7D0B685E95
:100C50007340C8F30894E108F10801091109C8516B
:100C6000DC4FE114F1040105110569F7DF91CF9123
:100C70001F910F91FF90EF900895E82FE695E6956C
:100C8000E695A82FB0E0613099F42FB7F894F0E022
:100C9000EE0FFF1FEF57FE4F0190F081E02D908186
:100CA000A770B070AF53BE4F8C91982B908313C038
:100CB0002FB7F894F0E0EE0FFF1FEF57FE4F0190B3
:100CC000F081E02D9081A770B070AF53BE4F8C9132
:100CD0008095892380832FBF0895A82FE82FE6955C
:100CE000E695E695F0E0EE0FFF1FE157FE4F01900D
:100CF000F081E02DE081B0E0A770B070AF53BE4F3F
:100D00008C91E82309F0E1E08E2F0895E82FE69515
:100D1000E695E695A82FB0E0613099F42FB7F894E6
:100D2000F0E0EE0FFF1FED58FE4F0190F081E02D37
:100D30009081A770B070AF53BE4F8C91982B908369
:100D400013C02FB7F894F0E0EE0FFF1FED58FE4FE1
:100D50000190F081E02D9081A770B070AF53BE4F2D
:100D60008C918095892380832FBF0895E82FF0E030
:100D7000613051F4EE0FFF1FEF57FE4F0190F081ED
:100D8000E02D8FEF80830895EE0FFF1FEF57FE4F8A
:100D90000190F081E02D10820895E82FF0E0EE0F31
:100DA000FF1FE157FE4F0190F081E02D80810895F3
:100DB000E82FF0E0EE0FFF1FED58FE4F0190F0819D
:100DC000E02D60830895833089F1843028F48130E8
:100DD000B9F0823000F50BC08530E1F1853098F133
:100DE000863009F440C0873009F052C046C0809177
:100DF0006A008C7F862B80936A0089B781603BC034
:100E000080916A00660F660F837F862B80936A004D
:100E100089B7826030C080916A006295607F8F7C64
:100E2000862B80936A0089B7846025C080916A0010
:100E30006295660F660F607C8F73862B80936A00C5
:100E400089B7886018C08AB78C7F862B8ABF89B71C
:100E5000806111C08AB7660F660F837F862B8ABFB9
:100E600089B7806208C08AB76295607F8F7C862BC5
:100E70008ABF89B7806489BF08958AB76295660F73
:100E8000660F607C8F73862B8ABF89B7806889BFA5
:100E90000895883058F4E82FF0E0EE0FFF1FE75771
:100EA000FD4F71836083642F0E94E30608951F92B3
:100EB0000F920FB60F920BB60F9211242F933F9300
:100EC0004F935F936F937F938F939F93AF93BF9352
:100ED000EF93FF938091890290918A02892B29F0E8
:100EE000E0918902F0918A020995FF91EF91BF91FB
:100EF000AF919F918F917F916F915F914F913F91B2
:100F00002F910F900BBE0F900FBE0F901F90189552
:100F10001F920F920FB60F920BB60F9211242F93C0
:100F20003F934F935F936F937F938F939F93AF9371
:100F3000BF93EF93FF9380918B0290918C02892B4A
:100F400029F0E0918B02F0918C020995FF91EF91CD
:100F5000BF91AF919F918F917F916F915F914F91D1
:100F60003F912F910F900BBE0F900FBE0F901F90CF
:100F700018951F920F920FB60F920BB60F92112475
:100F80002F933F934F935F936F937F938F939F9391
:100F9000AF93BF93EF93FF9380918D0290918E0258
:100FA000892B29F0E0918D02F0918E020995FF9135
:100FB000EF91BF91AF919F918F917F916F915F91D1
:100FC0004F913F912F910F900BBE0F900FBE0F903E
:100FD0001F9018951F920F920FB60F920BB60F929B
:100FE00011242F933F934F935F936F937F938F932E
:100FF0009F93AF93BF93EF93FF9380918F02909154
:101000009002892B29F0E0918F02F09190020995CE
:10101000FF91EF91BF91AF919F918F917F916F91D0
:101020005F914F913F912F910F900BBE0F900FBE8C
:101030000F901F9018951F920F920FB60F920BB63C
:101040000F9211242F933F934F935F936F937F934E
:101050008F939F93AF93BF93EF93FF9380919102F0
:1010600090919202892B29F0E0919102F0919202E5
:101070000995FF91EF91BF91AF919F918F917F91D2
:101080006F915F914F913F912F910F900BBE0F90F9
:101090000FBE0F901F9018951F920F920FB60F92D0
:1010A0000BB60F9211242F933F934F935F936F933F
:1010B0007F938F939F93AF93BF93EF93FF93809111
:1010C000930290919402892B29F0E0919302F09180
:1010D00094020995FF91EF91BF91AF919F918F91EC
:1010E0007F916F915F914F913F912F910F900BBE28
:1010F0000F900FBE0F901F9018951F920F920FB672
:101100000F920BB60F9211242F933F934F935F933F
:101110006F937F938F939F93AF93BF93EF93FF93BF
:101120008091950290919602892B29F0E091950289
:10113000F09196020995FF91EF91BF91AF919F9128
:101140008F917F916F915F914F913F912F910F9070
:101150000BBE0F900FBE0F901F9018951F920F920D
:101160000FB60F920BB60F9211242F933F934F930C
:101170005F936F937F938F939F93AF93BF93EF93FF
:10118000FF938091970290919802892B29F0E0912A
:101190009702F09198020995FF91EF91BF91AF915D
:1011A0009F918F917F916F915F914F913F912F917F
:1011B0000F900BBE0F900FBE0F901F9018951F92AF
:1011C0000F920FB60F920BB60F9211242F933F93ED
:1011D0004F935F936F937F938F939F93AF93BF933F
:1011E000EF93FF938091990290919A02892B29F0B5
:1011F000E0919902F0919A020995FF91EF91BF91C8
:10120000AF919F918F917F916F915F914F913F919E
:101210002F910F900BBE0F900FBE0F901F9018953F
:1012200093B7987F982B93BF08959EB5987F982B7E
:101230009EBD089583E00E9415091DBC1CBC87B7A4
:10124000846087BF0895EAE8F0E09081987F982B4A
:101250009083089583E00E942309109289001092E0
:101260008800EDE7F0E08081846080830895893014
:1012700031F48FB582608FBD8FB58E7F0AC08A3002
:1012800019F48FB5826002C08FB58D7F8FBD8FB589
:1012900081608FBD1BBC1ABC19BC18BC10927900B0
:1012A0001092780008958FB580688FBD8FB58F7BC1
:1012B0008FBD08958FB580628FBD8FB58F7E8FBD36
:1012C00008958FB588608FBD8FB58B7F8FBD0895D2
:1012D0009BBD8ABD089599BD88BD089590937900FE
:1012E000809378000895893049F480918B00826062
:1012F00080938B0080918B008E7F0EC08A3021F40A
:1013000080918B00826003C080918B008D7F8093E1
:101310008B0080918B00816080938B0010928700FE
:101320001092860010928500109284001092830023
:10133000109282000895EBE8F0E08081806880835D
:1013400080818F7B80830895EBE8F0E0808180626C
:10135000808380818F7E80830895EBE8F0E0808138
:101360008860808380818B7F80830895853019F425
:101370000E9453090895843019F40E945A0908956F
:10138000833019F40E9461090895823019F40E9493
:101390009B090895813019F40E94A40908958823B7
:1013A00011F40E94AD090895909387008093860000
:1013B000089590938500809384000895909383000E
:1013C000809382000895EF92FF921F93CF93DF9353
:1013D000182F7B018D31B0F08F3111F413E014C060
:1013E0008E3111F414E010C08D3109F49BC08532A8
:1013F00011F410E03DC0843211F411E039C08332A1
:1014000019F48EC08330A0F180919B0286FD0BC041
:101410000E941A0978948AE00E94370980919B0201
:10142000806480939B0280919B02C12FD0E090E06A
:10143000012E02C0959587950A94E2F780FD4CC075
:1014400087B3FE01E753FE4F9081892B87BB812F25
:101450000E94B60920919B0281E090E0012E02C01B
:10146000880F991F0A94E2F7282B20939B0234C01F
:1014700080919B0287FD0BC00E942A0978948AE024
:101480000E94730980919B02806880939B028091E7
:101490009B02C12FD0E090E0012E02C09595879568
:1014A0000A94E2F780FD24C082B1FE01E753FE4FAB
:1014B0009081892B82B9812F0E94B60920919B02CD
:1014C00081E090E0012E02C0880F991F0A94E2F794
:1014D000282B20939B020CC0153021F4C7010E94D9
:1014E000680922C0143021F4C7010E946B091CC096
:1014F000133021F4C7010E946E0916C0123021F486
:10150000C7010E94D40910C0113021F4C7010E9404
:10151000D9090AC0112341F4C7010E94DE0904C0A1
:1015200012E0A6CF15E070CFDF91CF911F91FF9011
:10153000EF9008951F920F920FB60F920BB60F9275
:1015400011242F933F934F935F936F937F938F93C8
:101550009F93AF93BF93EF93FF938091A2029091DB
:10156000A302892B29F0E091A202F091A302099530
:10157000FF91EF91BF91AF919F918F917F916F916B
:101580005F914F913F912F910F900BBE0F900FBE27
:101590000F901F9018951F920F920FB60F920BB6D7
:1015A0000F9211242F933F934F935F936F937F93E9
:1015B0008F939F93AF93BF93EF93FF938091AC0270
:1015C0009091AD02892B29F0E091AC02F091AD022F
:1015D0000995FF91EF91BF91AF919F918F917F916D
:1015E0006F915F914F913F912F910F900BBE0F9094
:1015F0000FBE0F901F9018951F920F920FB60F926B
:101600000BB60F9211242F933F934F935F936F93D9
:101610007F938F939F93AF93BF93EF93FF938091AB
:10162000B2029091B302892B29F0E091B202F091BD
:10163000B3020995FF91EF91BF91AF919F918F9167
:101640007F916F915F914F913F912F910F900BBEC2
:101650000F900FBE0F901F9018951F920F920FB60C
:101660000F920BB60F9211242F933F934F935F93DA
:101670006F937F938F939F93AF93BF93EF93FF935A
:1016800080919E0290919F02892B29F0E0919E0209
:10169000F0919F020995FF91EF91BF91AF919F91BA
:1016A0008F917F916F915F914F913F912F910F900B
:1016B0000BBE0F900FBE0F901F9018951F920F92A8
:1016C0000FB60F920BB60F9211242F933F934F93A7
:1016D0005F936F937F938F939F93AF93BF93EF939A
:1016E000FF938091A4029091A502892B29F0E091AB
:1016F000A402F091A5020995FF91EF91BF91AF91DE
:101700009F918F917F916F915F914F913F912F9119
:101710000F900BBE0F900FBE0F901F9018951F9249
:101720000F920FB60F920BB60F9211242F933F9387
:101730004F935F936F937F938F939F93AF93BF93D9
:10174000EF93FF938091A6029091A702892B29F035
:10175000E091A602F091A7020995FF91EF91BF9148
:10176000AF919F918F917F916F915F914F913F9139
:101770002F910F900BBE0F900FBE0F901F901895DA
:101780001F920F920FB60F920BB60F9211242F9348
:101790003F934F935F936F937F938F939F93AF93F9
:1017A000BF93EF93FF938091A8029091A902892B98
:1017B00029F0E091A802F091A9020995FF91EF911B
:1017C000BF91AF919F918F917F916F915F914F9159
:1017D0003F912F910F900BBE0F900FBE0F901F9057
:1017E00018951F920F920FB60F920BB60F921124FD
:1017F0002F933F934F935F936F937F938F939F9319
:10180000AF93BF93EF93FF938091AA029091AB02A5
:10181000892B29F0E091AA02F091AB020995FF9182
:10182000EF91BF91AF919F918F917F916F915F9158
:101830004F913F912F910F900BBE0F900FBE0F90C5
:101840001F9018951F920F920FB60F920BB60F9222
:1018500011242F933F934F935F936F937F938F93B5
:101860009F93AF93BF93EF93FF938091AE029091BC
:10187000AF02892B29F0E091AE02F091AF020995F9
:10188000FF91EF91BF91AF919F918F917F916F9158
:101890005F914F913F912F910F900BBE0F900FBE14
:1018A0000F901F9018951F920F920FB60F920BB6C4
:1018B0000F9211242F933F934F935F936F937F93D6
:1018C0008F939F93AF93BF93EF93FF938091B40255
:1018D0009091B502892B29F0E091B402F091B50204
:1018E0000995FF91EF91BF91AF919F918F917F915A
:1018F0006F915F914F913F912F910F900BBE0F9081
:101900000FBE0F901F9018951F920F920FB60F9257
:101910000BB60F9211242F933F934F935F936F93C6
:101920007F938F939F93AF93BF93EF93FF93809198
:10193000B6029091B702892B29F0E091B602F0919E
:10194000B7020995FF91EF91BF91AF919F918F9150
:101950007F916F915F914F913F912F910F900BBEAF
:101960000F900FBE0F901F9018951F920F920FB6F9
:101970000F920BB60F9211242F933F934F935F93C7
:101980006F937F938F939F93AF93BF93EF93FF9347
:101990008091B8029091B902892B29F0E091B802A8
:1019A000F091B9020995FF91EF91BF91AF919F918D
:1019B0008F917F916F915F914F913F912F910F90F8
:1019C0000BBE0F900FBE0F901F9018951F920F9295
:1019D0000FB60F920BB60F9211242F933F934F9394
:1019E0005F936F937F938F939F93AF93BF93EF9387
:1019F000FF938091BA029091BB02892B29F0E0916C
:101A0000BA02F091BB020995FF91EF91BF91AF919E
:101A10009F918F917F916F915F914F913F912F9106
:101A20000F900BBE0F900FBE0F901F90189583E084
:101A300061E00E94B60684E061E00E94B6067894F8
:101A40000E948F050E945705FDCFDC01ED91FC91AE
:101A50000190F081E02D099508950E94250D0895CB
:101A60000F931F93CF93DF938C01EB0104C021965A
:101A7000C8010E942D0D68816623C9F7DF91CF91BF
:101A80001F910F9108952F923F924F925F926F9204
:101A90007F928F929F92AF92BF92CF92DF92EF92FE
:101AA000FF920F931F93DF93CF93CDB7DEB7A0972D
:101AB0000FB6F894DEBF0FBECDBF1C016A017B01DB
:101AC000411551056105710521F460E30E942D0D5A
:101AD0004FC0882499245401422E5524662477242B
:101AE00001E010E00C0F1D1F080D191DC701B60104
:101AF000A30192010E941B0EF80160830894811CCF
:101B0000911CA11CB11CC701B601A30192010E9446
:101B10001B0EC901DA016C017D01C114D104E1047D
:101B2000F104F1F681E0E82EF12CEC0EFD1EE80C3C
:101B3000F91C3E010894611C711CD501C401019778
:101B4000A109B1096C01C818D9080FC0F601EE0D42
:101B5000FF1D60816A3010F4605D01C0695CC101E5
:101B60000E942D0D0894E108F1086E147F0471F7AE
:101B7000A0960FB6F894DEBF0FBECDBFCF91DF9118
:101B80001F910F91FF90EF90DF90CF90BF90AF909B
:101B90009F908F907F906F905F904F903F902F908D
:101BA0000895EF92FF920F931F93CF93DF93EC0171
:101BB0007A018B0177FF0BC06DE20E942D0D10950D
:101BC0000095F094E094E11CF11C011D111DCE0163
:101BD000B801A7012AE00E94430DDF91CF911F9128
:101BE0000F91FF90EF900895AB01662757FD609528
:101BF000762F0E94D10D0895629FD001739FF0014E
:101C0000829FE00DF11D649FE00DF11D929FF00D8C
:101C1000839FF00D749FF00D659FF00D9927729FC3
:101C2000B00DE11DF91F639FB00DE11DF91FBD014E
:101C3000CF0111240895A1E21A2EAA1BBB1BFD019E
:101C40000DC0AA1FBB1FEE1FFF1FA217B307E4079B
:101C5000F50720F0A21BB30BE40BF50B661F771FF3
:101C6000881F991F1A9469F76095709580959095D3
:101C70009B01AC01BD01CF01089597FB092E0526FC
:101C80000ED057FD04D0D7DF0AD0001C38F4509591
:101C90004095309521953F4F4F4F5F4F0895F6F790
:101CA00090958095709561957F4F8F4F9F4F0895C8
:101CB000EE0FFF1F0590F491E02D0994F894FFCFEB
:101CC000696E2041524D2C2073746174650041721D
:101CD0006D20697320636F6D696E672075700A00EF
:101CE00061726D20697320636F6D696E6720646F28
:101CF000776E0A004E6F7468696E672068617320A2
:101D00006368616E6765640A002D2D2D2D2D2D2DC4
:101D10002D2D2D2D2D2D2D2D2D2D2D2D2D2D2D2DF3
:101D20002D2D2D2D2D2D2D2D2D2D2D2D2D2D2D2DE3
:101D30002D0A00320035003B0038002300620065A8
:101D400000310034003A00370022006100640030A6
:101D5000003300390036002100200063001800190C
:101D6000002600270005000400010000000000001C
:101D7000003A01000000006704BA021C04010436A6
:101D80000401020408102040802010088040200038
:00000001FF
